:020000040800F2
:20000000000400209D0100089F0100089F0100089F0100089F0100089F0100089F01000826
:200020009F0100089F0100089F0100089F0100089F0100089F0100089F0100089F01000880
:200040009F0100089F0100089F0100089F0100089F0100089F0100089F0100089F01000860
:200060009F0100089F0100089F0100089F0100089F0100089F0100089F0100089F01000840
:200080009F0100089F0100089F0100089F0100089F0100089F0100089F0100089F01000820
:2000A0009F0100089F0100089F0100089F0100089F0100089F0100089F0100089F01000800
:2000C000E502000855080008BD02000872B6244880F30888234880F30988022080F31488CE
:2000E000BFF36F8F00F045FA00F0A2FB1E481F491B4A914202DA08600431FAE71C49194A6C
:20010000914202DA08600431FAE71A491A4A1B4B9A4204DA0868106004310432F8E7002081
:200120001749184A914202DA08600431FAE700F023FA00F01FFA144C144DAC4203DA2168A5
:2001400088470434F9E700F0A7FB114C114DAC4203DA216888470434F9E70F490847000089
:200160000004002000080020555555550000002000040020180C000800080020000800201F
:200180000008002030100020C0000008C8000008C8000008CC0000087705000896E700F0AA
:2001A00000F8FEE7002243088B4274D303098B425FD3030A8B4244D3030B8B4228D3030C00
:2001C0008B420DD3FF22090212BA030C8B4202D31212090265D0030B8B4219D300E0090AAB
:2001E000C30B8B4201D3CB03C01A5241830B8B4201D38B03C01A5241430B8B4201D34B03EE
:20020000C01A5241030B8B4201D30B03C01A5241C30A8B4201D3CB02C01A5241830A8B4245
:2002200001D38B02C01A5241430A8B4201D34B02C01A5241030A8B4201D30B02C01A524120
:20024000CDD2C3098B4201D3CB01C01A524183098B4201D38B01C01A524143098B4201D346
:200260004B01C01A524103098B4201D30B01C01A5241C3088B4201D3CB00C01A5241830870
:200280008B4201D38B00C01A524143088B4201D34B00C01A5241411A00D2014652411046C4
:2002A0007047FFE701B5002000F006F802BDC0460029F7D076E770477047C04610B5064C40
:2002C0002378002B07D1054B002B02D0044800E000BF0123237010BD00080020000000009C
:2002E000180C0008044B10B5002B03D00349044800E000BF10BDC04600000000040800208A
:20030000180C000880231D4A9B02516910B50B4353619023DB0519681948014019608021B9
:200320001C680903214319605968164C21405960D9680140D960D968D960996801409960A3
:2003400080219868C9020143F0209960596A814359621021586A0143596280239169DB0137
:200360000B43E12193619369074B4902D868FFF719FF0922054BD8601A6010BD0010024006
:20038000FFFFF3FFFFFDFFFF1C080020003801408022044BD9691142FCD080B21885002075
:2003A0007047C04600380140F0B505000E001F00002487B0019228003100FFF779FF030078
:2003C0000800C2B229001D0013003733DBB2092801D83032D3B202AA013403321355B142EF
:2003E000E9D22500019B9D4209D3013C03ABE05CFFF7CEFF002807D1002CF6D105E03800CC
:20040000FFF7C6FF002802D00C2007B0F0BD0135E8E7F7B503000C0018785A1C0092002817
:2004200073D0252802D0FFF7B3FF3BE05E78302E14D1023300930025009B18785A1C0300ED
:20044000303BDBB20092092B03D92A2808D108CCDBB20A214D435D191300EEE72026EAE746
:200460002E280BD11078531C0200303A0093092A02D92A2802D104341A00F3E763282FD06B
:2004800013D841284CD003D82528CCD0009BC3E7532828D05828F9D133002A00102101CCCB
:2004A000FFF782FF0028F1D02FE073281BD011D8642801D06928E9D180CC002F05DA2D200F
:2004C000FFF766FF002820D17F4233002A000A213800E5E77528D9D133002A000A21DEE7C7
:2004E00001CCC0B29FE72768380000F0B9F90190002F02D03878002802D1019BED1A0BE003
:200500000137FFF745FF0028F2D0F7BD3000FFF73FFF013D0028F8D1002DF7DC0434B5E764
:20052000002563682768A6680193019B9D4201DB0C34ABE7002D09D1302302221021785DED
:20054000FFF732FF0028E0D10135EEE7002EF3D0F0B2FFF71DFF0028EED0D6E70FB407B5C9
:2005600004A901C90191FFF754FF03B008BC04B0184770477047FEE7F0B5082000240E4904
:200580004A680E6815008B68AB4210D8D51E0026AB4203D303339B1A9B089E00CB68921970
:2005A000934207D8013810310028E9D1F0BD80CE80C5E9E710C2F3E7DC0A0008402330B539
:2005C000094C411865692B4363610824074B9C601A61074A5A61884202D1186880B230BD30
:2005E000027801301A70F6E7001002400030024021100000F7B500220300012103250426AF
:2006000001920B4AD46828000C4206D1D4680800344202D1D06800090840019C671C01979B
:200620009C4202D20328EDD0FEBD0220FCE7C04600200240024B034A5A60034A5A607047E6
:200640000020024023016745AB89EFCD10B50448FFF7D0FF8023034A11690B43136110BDA9
:2006600040420F000020024070B505000B48FFF7C1FF002811D10223094C2269134323616B
:2006800040236561226913432361C0460348FFF7B1FF2369034A1340236170BD40420F0067
:2006A00000200240FD1F000070B506000D480C00FFF7A0FF002814D101230B4D09482A692E
:2006C00013432B61A3B23380FFF794FF002804D1240C04487480FFF78DFF2B69034A134084
:2006E0002B6170BD40420F0000200240FE1F0000F7B5140007000E00FFF7A8FFFFF79AFF30
:2007000034220F4B2000DA60FFF7AEFF051E08D10336B608B600331926000193019B9E4201
:2007200003D1FFF793FF2800FEBD3B1B30009959FFF7BAFF002801D10436EFE70500F0E76D
:20074000002002401E4A10B550680007800F02280AD0032831D00138431E9841194B404233
:200760001840194BC01810BD0F20D16A536801409B0C034001319C1C834200D11024536859
:20078000C022802052021340400283420DD008D8002B10D080220D481202934206D0604308
:2007A000E1E7934205D00948F9E70748FFF7FAFCF5E70748FAE70748F1E70548D3E7C0461B
:2007C0000010024000F7C2FF001BB70000127A00006CDC0200093D00F0B5040087B0124EE1
:2007E000124F02AD31001022280000F05DF97B6820001B061B0FED5CFFF7A4FF3100E8408F
:200800000822A06005001031684600F04DF96A467B685B055B0FD35CDD405A1E934101335B
:20082000E560237407B0F0BDC40A0008001002400122074B19680A431A600222196811429B
:20084000FCD0012299690A439A619B697047C046001002400122014B1A7470471C08002054
:2008600003001A78002A01D1181A70470133F8E7064B10B51C6806482100FFF76FFE054B2F
:200880001B6883F30888A04710BDC046042000085C0B000800200008F0B585B072B6BF236E
:2008A0001025654C5B04A26A644F1343A362A36A634A38001340A362A36A2269614B1343F5
:2008C00023612369604A134023612369E2685F4B1343E360E3685E4A13405E4AE360E368F2
:2008E00013682B431360FFF777FFFFF70BFD5A4A5A495B48FFF732FEF8685A49FFF752FCDB
:2009000058490600B868FFF74DFC574B010032001800FFF723FE80236269DB021343636168
:20092000524C5349236853480B402360802322685B001A4322606268AA436260626862601D
:20094000E2680A40E260E268E260A2680A40A260A2681343A360484BA5611D68474B2900A3
:200960001E683200FFF7FAFDD0231B029D4201D9FFF77EFF290000224148FFF71FFE0100AE
:20098000B04204D03F48FFF7E9FDFFF771FF3E48FFF7E4FD3A4B03353C4FAD0801933C4E50
:2009A000002D13D13B48FFF7D9FD01235B4208213000314A33607360FFF79AFE011E02D05D
:2009C0003548FFF7CBFDFFF753FF1AE0802303959B009D4200D9039332000399019B890083
:2009E0000291C91801CB01C28B42FBD13A0030000299FFF77DFE002811D039002748FFF73E
:200A0000ADFD1022264B1900013B0029FBD1244BA2621900013B0029FBD1A261F2E721483D
:200A2000FFF79CFD029A019B944663440193039BBF18ED1AB3E7C046001002401C08002028
:200A4000FFFF81FE3349EE7ACCB61185015A4700FEA5B8FF002002406F0B00087D0B0008AD
:200A6000860B000840420F008E0B000800040048FFFCFFFFAC0B000800F0000804F00008B3
:200A800000F80008C30B0008D50B00080020000830080020F50B0008000C0008DD0B00080C
:200AA000A0860100F30B0008002310B59A4200D110BDCC5CC4540133F8E7FFFFF8B5C046A3
:200AC000F8B5C046000000000000000001020304060708090000000001020304180C000805
:200AE000301000203010002030100020180C0008000000000000000000000000180C00087E
:200B0000000000000000000000000000180C0008000000000000000000000000180C00087D
:200B2000000000000000000000000000180C0008000000000000000000000000180C00085D
:200B4000000000000000000000000000180C00080000000000000000000000004A756D70CD
:200B6000696E6720746F203078253038580D0032303234303231375F323231350046303712
:200B800032426F6F74000D25532025530D00414842467265713D25754D487A3B20415042F8
:200BA000467265713D25754D487A0D004677537A3A2025753B206372633A20307825303418
:200BC000580D00435243204572726F723A20307825580D0A00437263206F6B0D000D577223
:200BE0006974654661696C206174203078253038580D002E000D5772697465206F6B0D003B
:200C0000457261736520506172616D73204661696C3A2025750D0000FFFFFFFFFFFFFFFFCB
:200C2000FFFFFFFFFFFFFFFFFFFFFFFFFFFFFFFFFFFFFFFFFFFFFFFFFFFFFFFFFFFFFFFFD4
:200C4000FFFFFFFFFFFFFFFFFFFFFFFFFFFFFFFFFFFFFFFFFFFFFFFFFFFFFFFFFFFFFFFFB4
:200C6000FFFFFFFFFFFFFFFFFFFFFFFFFFFFFFFFFFFFFFFFFFFFFFFFFFFFFFFFFFFFFFFF94
:200C8000FFFFFFFFFFFFFFFFFFFFFFFFFFFFFFFFFFFFFFFFFFFFFFFFFFFFFFFFFFFFFFFF74
:020000040800F2
:20200000C802002001220008D9280008314E00080322000803220008032200080322000867
:20202000032200080322000803220008032200080322000803220008032200080322000838
:202040000322000803220008032200080322000803220008A94F0008DD4F00081150000802
:2020600003220008914A0008A5370008CD37000803220008032200080322000803220008AC
:20208000032200080322000803220008593C00080322000803220008032200080322000868
:2020A000032200080322000803220008CD590008115A0008555A00080322000829430008A0
:2020C00015240008B1280008B14A00082D540008915F0008A15F00087D6C0008ED23000849
:2020E000F0B544464D4656465F46F0B46B46CB60C3689D46F0BCA046A946B246BB46F0BD28
:2021000000F026FC62B6281CA047002000F044FFFEE700F00DFC00F0F3FD00F019FC024A08
:20212000024B1360FEE7C04604ED00E00000008072B6244880F30888234880F3098802207B
:2021400080F31488BFF36F8F01F0BCF803F0DEF81E481F491B4A914202DA08600431FAE7F2
:202160001C49194A914202DA08600431FAE71A491A4A1B4B9A4204DA086810600431043238
:20218000F8E700201749184A914202DA08600431FAE701F09BF801F096F8144C144DAC429F
:2021A00003DA216888470434F9E704F067FC114C114DAC4203DA216888470434F9E70F492D
:2021C00008470000C8020020C804002055555555C8000020C8020020FC790008C80400204B
:2021E000200500202005002044340020C0200008DC200008DC200008E0200008C9320008C2
:2022000096E700F000F8FEE702B4714649084900095C49008E4402BC7047C04603B4714604
:20222000490840004900095E49008E4403BC7047002243088B4274D303098B425FD3030A33
:202240008B4244D3030B8B4228D3030C8B420DD3FF22090212BA030C8B4202D31212090230
:2022600065D0030B8B4219D300E0090AC30B8B4201D3CB03C01A5241830B8B4201D38B0308
:20228000C01A5241430B8B4201D34B03C01A5241030B8B4201D30B03C01A5241C30A8B4263
:2022A00001D3CB02C01A5241830A8B4201D38B02C01A5241430A8B4201D34B02C01A524140
:2022C000030A8B4201D30B02C01A5241CDD2C3098B4201D3CB01C01A524183098B4201D364
:2022E0008B01C01A524143098B4201D34B01C01A524103098B4201D30B01C01A5241C3084E
:202300008B4201D3CB00C01A524183088B4201D38B00C01A524143088B4201D34B00C01AAF
:202320005241411A00D20146524110467047FFE701B5002000F006F802BDC0460029F7D097
:2023400076E770477047C046002B11D1002A0FD1002900D1002802D00021C943080007B4B1
:20236000024802A14018029003BDC046D9FFFFFF03B4684601B5029804F0AAFD019B9E461A
:2023800002B00CBC7047C04610B5002903D100F007F8203002E0080000F002F810BDC0465E
:2023A0001C2101231B04984201D3000C10391B0A984201D3000A08391B09984201D30009A1
:2023C000043902A2105C40187047C046040302020101010100000000000000000023C25C4B
:2023E0000133002AFBD1581E7047000010B5064C2378002B07D1054B002B02D0044800E058
:2024000000BF0123237010BD2005002000000000FC790008044B10B5002B03D0034904480D
:2024200000E000BF10BDC0460000000024050020FC7900080748022905D00020032903D0F6
:20244000012900D104487047032AFCD80348D2008018F8E714720008607200087C7200088B
:2024600070470000044810B50368044A5B699847431E9841C0B210BD3C050020E703000074
:20248000F8B50D0016001F00164C0021236820009B6998470028F7DC23683E2120005B6973
:2024A000114A984701000120002919D1FA2200233800920004F0DEFC00230B4A801859412C
:2024C000FA2200239200FFF73FFF22680300176A290032002000B847801B431E9841C0B228
:2024E000F8BDC0463C050020E703000008B4024B9C46043808BC604781240008F7B51C00CF
:202500001600019101F048FBFA220023920007000021200004F0AEFC0023144A8018594175
:20252000FA2200239200FFF70FFF05004E21104CFF31236820009B699847009001F02CFB90
:20254000C01B80B285420ED3009B3E2BEED123683200DF6920002B000199B847801B431E1E
:202560009841C0B2FEBD0220FCE7C046E70300003C05002008B4024B9C46043808BC60476D
:20258000FD2400080EB403B503AA02CA019202F0D7FF02B008BC03B0184708B4024B9C4651
:2025A000043808BC6047C0468525000870B504002600A4360D0000F02DFAB368002B35DD17
:2025C00000F028FA210094310A68B3681000013BB3606B782E781B023343AE780830360463
:2025E0001E43EB7808601B0633431E0A137056701E0C1B0E9670D3706B792E791B023343ED
:20260000AE7936041E43EB791B0633431D0A137155711D0C1B0ED371230090339571984230
:2026200000D30C602000983000F0D0FB70BD000037B505000C00012905D0022907D0124833
:20264000002901D037BD114803F054F8FAE772B600F090F9280001210D4A01F07FFB0D4A0F
:202660002100280001F07AFB0B4801F0D7F900230093C02369461B0108480193FFF796FFC4
:2026800000F08AF962B6DDE79C720008A4720008C8720008EC7200083C050020D01E0020A0
:2026A00010B572B600F066F9034801F0EDF900F073F962B610BDC0463C050020C622054BDC
:2026C00052009B581B681878043843425841C0B27047C0463C050020F7B58726B600324C2B
:2026E0002000FFF7EBFF002859D0304803681B6998470028F3DD2300FF335B7CC5B2002B7D
:2027000015D022000023FF3253742200FC32136101F042FA23002200FE33FC32988213696C
:20272000082D0ED1002BDAD0013B1361D7E72300FE339F8A01F030FAC01B80B26328E0D85A
:20274000E6E70D2D01D00A2D22D1002BC7D00022E3181A721649174A174802F08AFE230050
:20276000FC3398610123FF34637472B600F0E0F8124B6A4600930D23694653711048FFF782
:2027800015FF032000F040FA00F0E2F862B6A6E7FE2BA4D8591CE418116125729FE7300094
:2027A00000F002FC9BE7C046CC0600203C050020AD720008D4070020D4060020D00600203E
:2027C000D01E002010B572B600F0B2F8054B1868037E032B01D100F007FA00F0B9F862B669
:2027E00010BDC0464009002013B58021144A89025369C0200B4353619023DB051C68000492
:2028000020431860506901435161C022196892040A431A6001F04AFA0A4C200001F0ACF82E
:202820002000094901F0D0F8002294210092074B80324900064800F06FFB064B186013BD76
:20284000001002403C050020C0720008D9260008080800204009002010B5094C094AA36D6E
:2028600063201340A36500F09FFB0749074801F031FA8023A26D1B021343A36510BDC04635
:20288000005C0040FF7FFFFFB0720008600A002010B5044801F042FA034A0449936D0B4049
:2028A000936510BD600A0020005C0040FF7FFFFF074900220B00FC33DA601A615A619A619A
:2028C000044B1A00243308320A604B607047C046CC06002010730008EFF30983203383F378
:2028E000098862B670470000024A0349136A0B401362704700ED00E0FFFF00FF10B50F301E
:202900000FD072B6EFF30984203C84F3098880235B04E36100F0E8F9024B002800D1024B33
:20292000A36110BD132100081E2100087047000010B5054C636DA26D134302D0034800F034
:2029400075FA0123A36510BD440900204073000810B5064C636D002B02D1A36D002B02DCE9
:20296000034800F063FA0023A36510BD440900204573000810B5064C636D002B02DDA36D99
:20298000002B02D0034800F051FA0123A36510BD440900204A73000810B5064C636D002B77
:2029A00002DDA36D002B02DC034800F03FFA0023A36510BD440900204F73000810B572B68F
:2029C000074C636D002B02DBA36D002B02D0054800F02CFA636D0133636562B610BDC046A5
:2029E000440900205473000810B572B6074C636D002B02DDA36D002B02D0054800F016FA27
:202A0000636D013B636562B610BDC0464409002059730008054B10B55A6D002A02DB9B6DCB
:202A2000002B02DC024800F001FA10BD440900205E730008054B10B55A6D002A02D19B6D64
:202A4000002B02DC024800F0F1F910BD440900206473000870B504000D00FFF7DBFF002CFE
:202A600002D10C4800F0E2F9216A237E294321620A2B03D1E3690B4206D170BD0B2BFCD1A0
:202A8000E36919408B42F8D100232000E36100F0ABF8F2E77F73000870B505000E00FFF7E0
:202AA000B9FF002D02D10A4800F0C0F92C68AC4200D170BDE3683343E360002E02D0236953
:202AC000334203D0A1686068FFF7C4FF2468EEE76A730008FEE70000F0B500250400194BC7
:202AE00087B05860056281620E00FFF7FDFE23001033236163610123012721005B42124A8A
:202B0000A3612C31200024606460A5606562A58325656565A765813300F0B2F97368E0602E
:202B200043610A4B07760093F36868460193336903970293064B0595049300F0E7F907B01B
:202B4000F0BDC046580A00208C73000891730008D52A0008024A536A034353627047C04665
:202B60004409002000238268037603691B6899689142FBD25A68036042601060586070472C
:202B800000238268037603691B6899689142FBD85A680360426010605860704770B50C0042
:202BA00072B6FFF7E7FE207E052807D8FFF72CFB0C06060316100022E3691A6001235B4261
:202BC0002000E361FFF7CEFFFFF7E6FE62B670BDE569FFF71FFFAB680133AB6062682368A6
:202BE00013605A60EAE7000010B50400FFF712FF002C02D1034800F019F92000FFF7B2FFF4
:202C000010BDC046A573000870B505000C4CE668FFF710FF357625682B685C6023600123BE
:202C2000E5602B76EFF309837269243B9A4202D9044800F0FBF831002800FFF751FA70BD59
:202C4000440900209673000870B50D000F4B86B0DE680400FFF7EEFE6B1C13D03300290042
:202C60000B4A684600F080FA2000FFF7CDFFFFF7D1FE009B002B02D0684600F091FAF06926
:202C800006B070BD2000FFF7BFFFF8E7440900209D2B0008F8B504000D00114EF768FFF7EF
:202CA000C9FEA268BB68E5619A4203D82000FFF759FFF8BD3800FFF763FF012305002376AE
:202CC000F460EFF309834269243B9A4202D9054800F0ACF829002000FFF702FAE9E7C0467F
:202CE0004409002096730008044BDA68196890688B689842804140427047C0464409002012
:202D00000D4B70B51C68D868226853601A6001222276DC60FFF734FF0500EFF3098342697D
:202D2000243B9A4202D9054800F080F829002000FFF7D6F970BDC046440900209673000809
:202D400070B5064CE568FFF775FE23689A68AB689A4201D9FFF7D4FF70BDC0464409002087
:202D600070B504000D00002801D0002902DA034800F05CF8A5602460646070BDD0730008CB
:202D800070B504000D00FFF755FE002C02D10D4800F04CF80020A3685A1EA260824203DAE6
:202DA000854202D1A360013870BD074B6268DB682900DC611C605A60052013606360FFF7C4
:202DC00043FFF1E7BE7300084409002010B50400FFF720FE002C02D1084800F027F8A368ED
:202DE0000133A360002B07DC2068036823605C600023C361FFF7F8FE10BDC046B17300082A
:202E0000012310B5064C07492370002306486360FFF762FE02232370FFF79AFD62B610BDE0
:202E2000580A0020E47300084409002072B60322024B1865024B1A70FEE7C04644090020FE
:202E4000580A002010B5FFF7E5FD00F0E7F910BD10B572B6FFF76CFD10BD10B5FFF778FD6D
:202E600062B610BD10B5041E02D10448FFF7DEFF21000820FFF7E8FE10BDC046F873000829
:202E80008B6002230B83002308610B620800704710B50400FFF7BEFD002C02D11848FFF70D
:202EA000C5FF072162680A4207D1A3680B4204D19A4202D29B1AA72B02D81148FFF7B6FFF6
:202EC000E368FF2B02D82369002B02D10C48FFF7ADFFA368626818002838426122694C3B21
:202EE000C3601A6162695A61064A1A62E368064A836002230376002302614376036210BD55
:202F000016740008012100084409002010B5FFF7BFFFFFF769FE10BDF8B505000C00160011
:202F20001F00002809D0A72907D903000B435B0703D1FF2A01D8002F02D10F48FFF776FF74
:202F4000283C2C19FFF784FF2300069A243B6561E3605A61094A1F611A620223002123832E
:202F6000074B2000A66023612162FFF793FEFFF774FF2000F8BDC04604740008012100085D
:202F80004409002010B5034BDB68D8610F20FFF73BFE10BD4409002010B50400FFF758FF87
:202FA0002000FFF7EFFF10BD10B50400FFF750FF2000FFF757FFFFF750FF10BD084B10B59C
:202FC000DB68002908D0426818605A60136043600420FFF739FE10BD01204042FBE7C04612
:202FE000440900200300006810B5834205D002681A605360C161FFF7F7FD10BD70B5040001
:203000000D002068844200D170BD036823605C60C561FFF7E9FDF4E710B503689C68A242B8
:203020000CD85C688A600B604C602160596099688A1A9A6001235B42836010BD1B68121BED
:20304000ECE70000F8B5802305000C005B02994217D3114C0227281980B200F0B3FD00F091
:203060009BFD451BADB20600A5420ED380237C1C5B029C4202D30948FFF7D8FE2700350067
:20308000E9E70229E6D20224E4E7022F02D90120FFF760FDF8BDC046FFFF0000397400089E
:2030A000F8B5194B140099838260184A0D0042601A6902605060186180235B029C4218D305
:2030C000134C2819802780B200F06CFD02267F0200F062FD401B80B284420ED80136BE42B6
:2030E00002D30C48FFF7A2FEA81980B200F06AFDEEE7022CE5D20224E3E7022E02D90120F1
:20310000FFF728FDF8BDC0464409002054090020FFFF000039740008F8B505000C0000F08E
:203120003BFD0F4B0F4F1A69BA4205D1010022002800FFF7B5FFF8BD9B8BC31A9BB2E61852
:20314000B34200D926009368B34202D92100FFF779FF320029003800FFF75EFFEBE7C04663
:203160004409002054090020F8B504000D0016001F00FFF74FFC002C03D0002E01D0002D06
:2031800002D10648FFF752FE002329002761E66020006361FFF7C0FFF8BDC046447400089A
:2031A00070B50400FFF736FC002C02D11848FFF73DFE184D2B699C420CD023686268A1681D
:2031C00013605A609A6852189A6000232360013BAB6170BD2368104A2B615A600023236070
:2031E0002B69934202D100F0E7FCF2E79A68A16852189A6000F0D0FCAB8B2A69C31A91681D
:203200009BB29942E5D9C91AFFF71CFFE1E7C0462C7400084409002054090020F7B5FFF7D2
:20322000F9FB264E346900F0B7FCB28BA168831A9BB2234F994239D85218236895B2626852
:20324000B58313605A60002323603369BB4201D100F0B2FCFFF7A0FB62B62000E3682169BC
:20326000984772B6FFF786FB6369002BD9D000F093FC6269451BADB20190531BAA4203D267
:203280000220FFF767FC00233269BA4205D11A0020000199FFF704FFF7BD5A19AA4200D271
:2032A0001A0021003800FFF7B7FEBAE73269BA42F2D0C91AFFF7C6FEEEE7C0464409002011
:2032C0005409002070477047FEE70000F0B5082000240E494A680E6815008B68AB4210D8D1
:2032E000D51E0026AB4203D303339B1A9B089E00CB689219934207D8013810310028E9D1D8
:20330000F0BD80CE80C5E9E710C2F3E75074000810B500F079FA00F0C9FC00F02CFB00F041
:2033200037FC10BD10B572B6FFF702FB10BD10B5FFF70EFB62B610BDF8B504000F00150062
:203340001E00002803D0002A01D0012B02D80D48FFF76CFD0023069A04367243E360A362A5
:20336000E362079BAA18A2612363069A089B277265612561E6616562246064602262636353
:20338000F8BDC0462375000810B50400FFF742FB00230221626A2000E36062612261A36216
:2033A000E3624942FFF72AFE10BD10B50400FFF731FB23696269934203D10020E268824239
:2033C00000D1181D10BD000070B50D000400FFF721FB002D03D0E369043BAB4202D20A4834
:2033E000FFF724FD23691D60E2680132E260E2699B18A2692361934201D3636A2361002146
:203400002000FFF7EFFD70BD1075000870B504000D00FFF70FFBE368002B07D06269002082
:20342000131D1268A3629B18E36208E0237A002B06D129002000FFF7C1FD0028EBDA70BD47
:2034400002204042FBE710B50400FFF7F3FAE368E269013BE36063699B18A2696361934202
:2034600001D3636A63610023A362236B002B01D02000984710BD70B504000D00FFF752FFEC
:20348000A36A002B09D129002000FFF7BFFF051E03D0FFF74CFF280070BDA36AE26A1D78A3
:2034A0000133A3629342F4D32000FFF7CCFFF0E7F7B504000E0000920193002A02D11E4838
:2034C000FFF7B4FCFFF72EFF0027A36A002B09D120000199FFF79AFF002803D0FFF727FF8A
:2034E0003800FEBDA16AE56A009B6D1ADB1B9D4200D91D00402D16D93000402203F054FE5F
:20350000A36A403640334037E26AA3629A4202D82000FFF798FFFFF70AFF009B9F42DFD25E
:20352000FFF700FFD1E730002A0003F03DFEA36A76195B197F19E7E701750008F8B50400B1
:203540000F0015001E00002803D0002A01D0012B02D80D48FFF76AFC069B0436E3607343A8
:20356000EB18A361069B277223620023A362E362079B65612363089B2561E661656224606F
:2035800064606363F8BDC046F374000810B50400FFF740FA236A0221E360636A20006361DA
:2035A000236100234942A362E362FFF727FD10BD70B504000D00FFF72DFA636922699A4222
:2035C00003D10020E268824202D1180008C82B6070BD10B50400FFF71DFAE368E2690133D6
:2035E000E36063699B18A2696361934201D3636A636100212000FFF7F5FC10BD70B50400E2
:203600000D00FFF717FAE368002B07D0236900201A1DA262E2699B18E36208E0237A002B6F
:2036200006D129002000FFF7C9FC0028EBDA70BD02204042FBE7000070B50D000400FFF7E3
:20364000F9F9002D03D0E369043BAB4202D20C48FFF7ECFB23691D60E268013AE260E269E0
:203660009B18A2692361934201D3636A23610023A362236B002B01D02000984770BDC0462A
:20368000E074000870B504000E001500FFF74AFEA36A002B09D129002000FFF7AFFF051E22
:2036A00003D0FFF744FE280070BDA36A1E70A36AE26A0133A362934204D3E169200004392A
:2036C000FFF7BAFFFFF733FE0025ECE7F7B504000E0000920193002A02D11F48FFF7A6FB3D
:2036E000FFF720FE0027A36A002B09D120000199FFF784FF002803D0FFF719FE3800FEBD4F
:20370000A06AE56A009B2D1ADB1B9D4200D91D00402D18D93100402203F046FDA36A4036F9
:2037200040334037E26AA3629A4204D8E16920000439FFF781FFFFF7FAFD009B9F42DDD261
:20374000FFF7F0FDCFE731002A0003F02DFDA36A76195B197F19E5E7D074000810B50400CF
:20376000FFF758F9236962690020934218D1E268824215D0A26A824212D0043AD11A9A4223
:203780000ED01960E268013AE260E2699B18A2692361934201D3636A236100230120A3623B
:2037A00010BD000010B57446FFF708F9054801F053F9054801F050F9FFF716F92000FFF79A
:2037C0009DF810BD0C7600081C76000810B57446FFF7F4F8084801F03FF9084801F03CF913
:2037E000074801F039F9074801F036F9FFF7FCF82000FFF783F810BD2C7600083C7600083C
:203800004C7600085C760008144B154A996A10B50A43FC219A629A6AC9030A409A629A6AFE
:203820001A69012252421A611A6900221A611A69D9680C4A0A438021DA60DA68C9030A4019
:20384000DA60DA688022D96952050A43DA61DB6901F082F8FFF76AF810BDC04600100240FD
:20386000FFFF81FFFFFFBFFF37B5C625446B6D0063591A681178042914D1217A022911D19A
:20388000197901238B4012891A420BD1200001A94430FFF78DFE02006059019B01790068DC
:2038A00000F0C4FA37BD10B50C30FFF701FE10BD012310B50C305B42FFF7FAFD10BD10B562
:2038C0004430FFF703FF10BD012310B544305B42FFF7FCFE10BD10B50C30FFF7CCFD10BD6B
:2038E000012110B50C304942FFF7C5FD10BD10B54430FFF7C7FE10BD012210B544305242E4
:20390000FFF7C0FE10BD000070B50D001400002802D10648FFF78AFA012D04D1002C02D01C
:203920000248FFF783FA002070BDC0463A75000870B5C6256D00435904001A68117804296B
:2039400013D1017A022910D1597901238B4052891A420AD10C30FFF728FD021E05D0605924
:2039600040234179006800F03DFA70BD10B5406BFFF7DEFF10BD70477FB503000F4A040013
:2039800004C301250226020043600D4B057229000193009640237C320C300294FFF7CCFCAA
:2039A0002000084B621D2900019300964023FF3244300294FFF7C2FD7FBDC0464075000870
:2039C0006D3900086938000870B504000D000E68002802D11048FFF729FA72B6FEF7A8FFB4
:2039E0002B7909339B00F3185C606B7911339B009C51AB79002B03D009339B00F6187460FA
:203A0000C6235B00E5508B3BFF3B2372FEF7A0FF62B6002070BDC0463175000870B50400C2
:203A20000C30FFF7B1FC0025200025754430FFF7ADFD23004C331D700121201DFFF72CF80C
:203A40002000FFF775FF70BD020060217432127803000A400020202A06D11A007532127823
:203A6000212A02D81F2A05D87047222AFCD19866D86603E0034A9A660722DA6618670120B6
:203A8000F2E7C046C804002073B5C6256D00435904001A68117804291AD1017A022917D18A
:203AA000197901238B4012891A4211D1060044363000FFF753FE00280AD001A93000FFF7E3
:203AC00077FD02006059019B0179006800F0AEF973BD0B0009339B00C318F7B55F6804003E
:203AE0000D00002F2CD072B6AE00FEF743FFA619381D0821FEF7D0FFF36844375B691B6863
:203B0000002B02D03800FFF764FD380001A9FFF74FFD019B021E0CD1F3685A69116800299C
:203B20000BD01A8A0B00013A1340114205D1220074322900200000F079F9FEF72DFF62B698
:203B4000F7BD1131890070B50C58002C1ED072B6FEF710FFC6235B00E3581A685B7902330D
:203B60009B00D3185B689B695D68002D08D00421201DFEF791FF200029000C30FFF724FCAC
:203B80002000FFF7D5FEFEF707FF62B670BD704710B500F01DF810BD014B586A80B27047B7
:203BA000002000400022034B58631A610232DA607047C046002000400022014BDA60704715
:203BC00000200040014B58637047C046002000408023114A5B00D16910B51943D161D26940
:203BE0000E4A91680B43FA2193600D4B8900D868FEF71EFB0B4B0C4A01389862DA620022AC
:203C00009A615A63DA605A6001325A61022113201A6000F05FFE10BD001002400058014035
:203C2000A415002000200040FFFF0000094A10B51369D1680B40D9B2C94311619B0707D5AE
:203C400072B6FEF797FEFFF7FDF8FEF7A5FE62B610BDC0460020004010B57446FEF7AEFEC4
:203C6000FFF7E4FFFEF7C0FE2000FEF747FE10BD0200030010B50400763212787E331A7056
:203C800000F078FC63681B68002B02D00121200098470323237010BD10B572B6FEF76AFE84
:203CA00010BD10B5FEF778FE62B610BD10B500F03DFC10BD01230022010003700300426008
:203CC0002C3348311A60DA6104338B42FAD182607047000070B504000D00002801D0002997
:203CE00002D10D48FFF7A2F872B6FEF721FE656000252000E56025616561A561E561256262
:203D00006562A56200F0D6FC02232370FEF720FE62B6280070BDC046B975000810B5041EB8
:203D200002D10D48FFF782F872B6FEF701FE200000F004FC0023012263602270E36023615D
:203D40006361A361E36123626362A362FEF7F8FFFEF7FEFD62B610BDB175000870B50500EF
:203D60000E001400FEF756FE002D01D0002C02D10C48FFF75BF8B31C9B006069EB185C604C
:203D8000002803D01022002103F000FAA069002803D01022002103F0F9F93100280000F063
:203DA000F3FB70BDA075000810B50400FEF732FE002C02D10948FFF739F8A368084A2000E9
:203DC0001340A360002323616361A361E36123626362A36200F090FC10BDC0468B75000834
:203DE00001000100F8B504000D0017001E00FEF711FE002C01D0072D02D90B48FFF716F867
:203E00000122AA4063892900134300226381AB1C9B00E3185B6820009B699F601E605A60A9
:203E200000F0BAFCF8BDC0467A750008F8B504000D0017001E00FEF7EDFD002C01D0072D27
:203E400002D90B48FEF7F2FF0122AA4023892900134300222381AB1C9B00E3185B68200010
:203E60005B699F601E605A6000F0BCFCF8BDC04668750008022370B5037003000025040016
:203E80006433C5678560C560056145618561C5610562456285621D7000F0ECFB63681B6896
:203EA000AB4202D029002000984770BD03000278803310B51A7005230370436804001B68A2
:203EC000002B01D0042198470023A36010BD030010B580331B78037043681B68002B01D044
:203EE0000521984710BD0000F7B50600643633780400002B01D000233370270074373A0027
:203F00002000019700F032FC63689B68002B18D1019B1A78602315001D401A4233D0002146
:203F2000200000F097FC0021200000F07FFC63681B68002B02D006212000984706233370F5
:203F4000F7BD200098470028E2D023007A331A785B781B021343E26E9A4200D9E366019B42
:203F6000E56E1B787F2B00D80CE1002D00D1FCE009233370FFF790FE0021E36EA26E20001D
:203F8000FFF754FFFBE023007F2175331B780A401B021343844A934200D1CEE026D8802280
:203FA0005200934257D00DD8012B4ED0022B00D194E0002BB3D122007C32A2660222E2661F
:203FC0002367C2E781225200934200D19DE0FF32FF329342A3D1230076331B78012B9ED1F1
:203FE00022007C32118801330B433FE080221201934244D021D8A022D20093423BD06B4AF7
:020000040800F2
:204000009B18012B00D98AE7230078331A785B7821001B02134322006068763240687731CE
:204020000700127820000978B847002800D176E74368A3660368E3661BE0902212019342FC
:2040400022D05B4A934200D069E75A4BA3660223E3660023B4E7230076331B78012B00D09F
:204060005DE7220002217C3213888B431380A566E566256769E7504BA566E566A0E7230040
:204080007F33A3660123D6E72378042B11D1FFF703FE2000FFF788FEFFF703FE2300032107
:2040A0007F331D70636821701B68002B01D020009847230076331B78002B0BD022007F32AF
:2040C00013700423237063681B68002B02D00221200098470023A366E36671E723000F2116
:2040E00078331B78200019405BB2002B0ADA00F02BFB012804D0022800D010E72F4BA5E7E3
:204100002F4BA3E700F00CFBF3E7230076331B78002B00D003E7230078331B780F221900DB
:2041200011401342D6D05BB22000002B02DA00F0B9FBCFE700F0A0FBCCE7230076331B7808
:20414000002B00D0EBE6230078331B780F22190011401342BED05BB22000002B02DA00F090
:2041600079FBB7E700F062FBB4E714233370FFF793FD2B002A0000212000FFF733FEFFF732
:2041800090FDDDE6002D06D015233370FFF784FDE36EA26EEFE70B233370FFF77DFD2B00D7
:2041A0002A002900EBE6C0460203000000FAFFFF020C0000C6750008713C0008C275000893
:2041C000C475000870B5060064360400307800283FD00638C3B20F2B33D80F2831D8FEF7C9
:2041E00013F83830300824313030303030303030383823007A331A785B78E06E1B021343D9
:20420000984212D2E368198AFEF798F80D1E0CD1FFF742FD2B002A0029002000FFF706FE98
:20422000FFF73FFD0A2333700BE014233370FFF733FD002320001A001900FFF7D3FDFFF75F
:2042400030FD70BD236F002B01D0200098470023E9E70021200000F0FDFA0021200000F02B
:20426000E5FA63681B68002B02D00621200098470623D8E770B5050064352B780400142B5D
:2042800029D019D8062B06D002D8002B03D070BD093B022BFBD80021200000F0DBFA0021BD
:2042A000200000F0C3FA63681B68002B02D0062120009847062318E0152BE8D10A3B2B70C6
:2042C000FFF7EAFC002320001A001900FFF7AEFDFFF7E7FCDBE7C3689B695B68002BD6D18C
:2042E000036F002B00D0984700232B70CFE700000B4B10B51B6D0B4CC0001B19C0180388AD
:2043000089181B1994B24480881A002A00DC10BD04784078023A0002204318800233F3E7CD
:20432000005C0040006000407346F0B5744C87B00593FEF743FB656C6B0504D5714B724891
:204340006364FFF797FD2B0508D50823226C6E48134323646D4B6364FFF7A8FDEB040BD5CA
:20436000A36C1B0406D40822236C674893432364FFF7ADFD664B6364AB0507D56248436877
:20438000DB68002B00D09847624B636480231B021D4206D1FEF728FB0598FEF7AFFA07B08C
:2043A000F0BD0F27564B2F40BD00ED185648BB1C9B00C3185B682E680193330629D52A68A7
:2043C0005549019B0A4080215B6909020A432A60DA68196894465A6803916244891A029143
:2043E00003995A6091422BD0019A0299128A8A4200D90A009968DA6061449960F8B2FFF79F
:2044000077FF2B68454A134030225A40444B13432B6080231B021E425CD02A683E4B1A4094
:20442000802313432B60FBB20493360514D536480237BB00C3185B685B680499984749E018
:204440000122BA40038993430381019B9B68002BDFD0F9B29847DCE7019B32489A69F90081
:2044600093680293236D1B185B18998809180391DB888C469B059B0D1900029801292BD843
:204480000399029E5808400009183618834201D0098831709168C91891605168C9185160F3
:2044A0001168C91A11609189013989B29181019A528A9A4201D8002918D10122BA401248D9
:2044C000438993434381BB1C9B00C3185B68DB68002BB2D1656C59E7664636880239067049
:2044E000360A467002260230B444C7E72B680E4A1340C02292015A40094B13432B60E9E774
:20450000005C0040FFFBFFFF600A0020FFF7FFFFFFEFFFFFFFFDFFFF0F07FFFFBF87FFFF4B
:2045200080800000006000408FB7FFFF10B50248FFF7C0FB10BDC046600A0020037810B53A
:20454000012B0ED0074B98420BD11F2000F0E2F90322054B05491A64054BDA690A40DA61E6
:20456000DB6910BD600A0020005C0040FFFF7FFF0010024080227E3003781343014AD36493
:204580007047C046005C0040F7B503228B1C9B00C3185C6823681340934256D05A42534107
:2045A0005B022E4A2E4E126DCD009219AD186269002A13D00700002208376A80FA6F0192C8
:2045C000228A01321600012296433200019E9219FA676A46968820222E801343A269002AC4
:2045E00018D0648A671E3E2C32D91F263E4301361C4A7611B6023243012692B20830EA80C7
:204600000134C26FB443A41892B2C467AA8080229201134311488A00121880201468C00173
:20462000044200D0034340201468044200D003430D48194301400D480D4C01431160116818
:2046400023404B4018431060F7BDC023DB00A8E701223A43013252109202CDE7005C004087
:20466000006000400080FFFF0F07FFFF8080000070780000002180230C4A10B51165516416
:20468000D3644368DB685C4263419E245B425B0A24025B021B191364030040220833DA67E0
:2046A000034BC360FFF770FF10BDC046005C0040C8750008017870B50400012914D10B4B69
:2046C00098420ED180220A4B1204D869094D0243DA61DB691F202964023100F0FBF80023B4
:2046E0002B642000FFF7C6FF70BDC046600A002000100240005C0040402301220830C367BD
:204700000548064993005B1819680132014319601860082AF5D1704780800000005C0040C3
:20472000074B8900C958C0220B00920113401800114204D0034A9B185A1E9341581C7047F4
:20474000005C004000F0FFFF074B8900C95830220B0013401800114204D0103B1800431E20
:20476000984101307047C046005C0040084B09481B6DC9001B18C9188B881B18100008303F
:2047800019880233118002329042F9D17047C046005C0040006000408B1C9B00C018426825
:2047A00070B595690C0028680123002805D0518A40180138FDF73CFD83B2AB81064BA4002A
:2047C000E4182368054A1340C02292015A40044B1343236070BDC046005C00408FB7FFFF66
:2047E000808000008B1C9B0010B5C01842680C005369128A19688A4200D90A00200099687B
:20480000DA60FFF775FD064BA400E4182368054A134030225A40044B1343236010BDC046F1
:20482000005C0040BF87FFFF80800000064B8900C9180B68054A1340802252015A40044BEA
:2048400013430B607047C046005C00408FB7FFFF80800000054B8900C9180B68044A13402C
:2048600010225A40034B13430B607047005C0040BF87FFFF80800000C022074B8900C91828
:204880000B6892011340934205D00A68034B1A40034B13430B607047005C0040BF87FFFF55
:2048A00080A000003022084B8900C9180B681340934207D00B68054A134020225A40044B17
:2048C00013430B607047C046005C0040BF87FFFF808000000322F0B5FF26C0250240D20092
:2048E0009640890191400A4F83089B00DB19AD005C591F22B4430C435C5101230240934045
:20490000C02240098000C019520083500360F0BD00E100E01F23012203409A4030B543096A
:204920000B4C0C4D9B0019195B19DA67C0235B00CA5003218308084088409B001B19C0247B
:20494000FC318140A4001A598A431A5130BDC04600E100E004E100E00022012308480949B9
:2049600010B5026042604C6810312260DC0001330251082BF7D10122034B52425A6010BD0D
:20498000000B0020FC75000800000240F0B585B00400029100920393FEF73CF8062C0AD85B
:2049A00001221700A7401E4B19680F4207D00025280005B0F0BD1B48FEF738FAF7E71A4E45
:2049C00020010190351801340098E40039431960E050164903981C196060486902434A6172
:2049E0004A69009A002A0BD05B68AA681A4203D1E87B0299FFF76EFF094A53683B435360C0
:204A00000F20019BF1184B68497B1A6882431A60019AB0580E228A40426000221A60C7E701
:204A2000000B0020EC750008FC75000800100240F8B504000D0016001F0072B6FDF778FF91
:204A40003B00320029002000FFF7A0FF0400FDF77FFF62B62000F8BD70B50268447B1168E1
:204A60000E25E140837B40682940006801420BD00800A04001335060044ADB009C58002C38
:204A800002D0D2185068A04770BDC046000B002010B57446FDF792FF0448FFF7DDFFFDF747
:204AA000A3FF2000FDF72AFF10BDC046FC750008084B094A10B51A600023A6201900074C91
:204AC00000011A190433117051709170D1708342F7D110BD400B002000140040440B00205F
:204AE000402330B5094C411865692B4363610824074B9C601A61074A5A61884202D11868A2
:204B000080B230BD027801301A70F6E700100240003002402110000010B572B6FDF72AFF65
:204B200010BD10B5FDF738FF62B610BD10B50C00FFF7F2FF236820001B689847FFF7F1FF28
:204B400010BD0000F0B50C009021C90588423BD180212F4D89026E6931436961032165003C
:204B6000A9400768CE438F430221A94007600768394301600121A140002A45D142688A4381
:204B80004260C2683240C260C268C2608268324082600122AA4081680A438260A200072C31
:204BA00002D92200083A92000721A14289410F2494409340494289004118086AA043086249
:204BC000086A03430B62F0BD1249884204D180210F4DC9026E69BFE70F49884204D180212C
:204BE0000B4D09036E69B7E70C49884204D18021074D49036E69AFE709498842AED18021FE
:204C0000034DC9036E69A7E7426811434160B8E7001002400004004800080048000C004893
:204C2000001400480368254A934207D18022244B120199690A439A619B6909E08022D205BD
:204C4000934206D101221E4BD9690A43DA61DB6970471C4A934203D1194B0222D969F4E7A3
:204C6000194A934203D1164B1022D969EDE7174A934203D1124B2022D969E6E7144A934294
:204C800004D180220E4B5200D969DEE7114A934204D180220A4B52029969CBE70E4A9342BA
:204CA00004D18022064B92029969C3E70B4A9342CED18022024BD2029969BBE7002C01404F
:204CC0000010024000040040001000400014004000200040004001400044014000480140AB
:204CE00010B50400FFF79EFFC02322681B0253648023116820690B431360A3690138D36237
:204D0000237D013B59424B41063303280BD8FDF77BFA021D242C91691B010B4393610123F5
:204D2000116A0B431362012353611168194311602E498A4203D08021C9058A421DD10223B3
:204D4000627D21896068FFF7FDFE10BD91691B030B439361116A1023E3E7D1691B010B43CE
:204D6000D3618023116A5B00DBE7D1691B030B43D3618023116A5B01D3E71D498A420BD1A8
:204D8000902360682189627DDB05984202D0194B984217D10123D6E717498A4208D19023C4
:204DA00060682189627DDB0598420BD10423CAE712498A4208D160682189627D9024E40546
:204DC000A042C0D10023BEE70D4B9A4202D00D4B9A42BAD1902360682189627DDB05984215
:204DE00001D10523AFE70223ADE7C046002C01400004004000040048002000400040014086
:204E000000440140004801408021084A10B593688B4393600378002B00D110BDD4690C4241
:204E2000FCD09BB213850130F4E7C0460038014010B50248FFF7E8FF01BEFEE76C760008BC
:204E4000F7B50190FEF7A8FE0126050003270C4B3C00DA68324206D1DA683400520702D45F
:204E6000DC6824093440FEF797FE019B401B80B2834203D9032CEAD02000FEBD0224FBE72D
:204E800000200240024B034A5A60034A5A6070470020024023016745AB89EFCD10B52D206A
:204EA000FFF7CEFF8023024A11690B43136110BD0020024070B505002D20FFF7C1FF002880
:204EC00011D10223084C22691343236140236561226913432361C0462D30FFF7B1FF2369EF
:204EE000024A1340236170BD00200240FD1F000070B506002D200C00FFF7A2FF002814D1BC
:204F000001230A4D2D302A6913432B61A3B23380FFF796FF002804D1240C74802D30FFF73D
:204F20008FFF2B69024A13402B6170BD00200240FE1F0000F7B50331140001908E0872B635
:204F4000FDF7F6FCFFF7AAFFFFF79CFF3422134B2000DA60FFF7AEFF051E13D1B600331981
:204F600026000093009B9E420FD0019B30001B1B9959FFF7BDFF071E0ED0094800F0BAFB7F
:204F80003D0002E0074800F0B5FBFFF787FFFDF7DFFC62B62800FEBD0436E3E70020024057
:204FA0008B7600087876000810B57446FDF706FDFFF7B2FD074B1B68002B00D09847032203
:204FC000054B5A61FFF7ADFDFDF70EFD2000FDF795FC10BDB81500200004014010B5744604
:204FE000FDF7ECFCFFF798FD074B1B68002B00D098470C22054B5A61FFF793FDFDF7F4FCF8
:205000002000FDF77BFC10BDBC1500200004014010B57446FDF7D2FCFFF77EFD074B1B687B
:20502000002B00D09847064B064A5A61FFF779FDFDF7DAFC2000FDF761FC10BDC0150020D1
:2050400000040140F0FF00000123084A11680B4302211360064B1068084204D1013B002BFA
:20506000F9D1012070470020FCE7C046001002400F27000080230F4A5B02516B82B00B4368
:20508000536300230C490193019B8B420BD980210A4B8902506B084209D1013B002BF9D170
:2050A000012002B07047019B01330193ECE70020F7E7C04600100240E60300000F270000BA
:2050C0001E4A10B550680007800F02280AD0032831D00138431E9841194B40421840194B10
:2050E000C01810BD0F20D16A536801409B0C034001319C1C834200D110245368C0228020CA
:2051000052021340400283420DD008D8002B10D080220D481202934206D06043E1E7934223
:2051200005D00948F9E70748FDF782F8F5E70748FAE70748F1E70548D3E7C046001002401A
:2051400000F7C2FF001BB70000127A00006CDC0200093D00F0B5040087B01C4E1C4F02AD45
:2051600031001022280002F01FF87B6820001B061B0FED5CFFF7A4FF3100E8400822A060E8
:2051800005001031684602F00FF86A467B68FA215B055B0FD35C8900DD405A1E9341013355
:2051A00023740C4BE560D868FDF742F801220A4B0138196891431960596A98625A6159629C
:2051C00019680A431A6007B0F0BDC046C471000800100240A415002000200040034B044AB9
:2051E0005B68D0685B0500D54000704700100240A415002070B504680D0021000A48FFF756
:20520000EDFFE16A0131FDF713F829000600FDF70FF800231A00AE425A41801AA0626362D3
:205220000133636170BDC046A415002070B5084D0849E868FCF7FCFF04000649A868FCF70B
:20524000F7FF054B01002200180000F03DFA70BDA415002040420F009E76000880231A4AEC
:205260001B05D16919481943D16111690B431361136917490B401361164B596801405960F2
:20528000802158688905014359605968090E09065960586810490143596019680F48014053
:2052A00019608021186889010143196040211868014380201960116B814311632022196858
:2052C0000A431A607047C04600100240FFFFFF48FFFFFFF7006C00407FBB2200FFC0FFFFFA
:2052E0002021074A13688B431360064B0649DA690A40DA618022196B0A431A637047C0464B
:20530000006C004000100240FFFFFFF70122074B19680A431A60022219681142FCD00122F7
:2053200099690A439A619B697047C0460010024070B504002600A4360D00FDF76BFBB36865
:205340000220002B36DDFDF765FB210094310A68B3681000013BB3606B782E781B023343AB
:20536000AE78083036041E43EB7808601B0633431E0A137056701E0C1B0E9670D3706B79E1
:205380002E791B023343AE7936041E43EB791B0633431D0A137155711D0C1B0ED3712300EC
:2053A00090339571984200D30C6020009830FDF70DFD002070BD000073B5C5690400002D51
:2053C00009D16A460134E37F69460B4853710095FFF7AEFF73BD061DFDF71CFB6368002B5A
:2053E00002D03000FDF7DCFE230029003000034AFDF7BAFEEEE7C046D01E00202D4B0008FF
:20540000002213B5431CDB7F00926A460400537169460548FFF78CFFA31CDB7F012B02D14A
:205420002000FFF7C9FF13BDD01E00200122014B1A747047A415002070B5060000200500D3
:205440008E4203D170BD0135002CFBD0745D2300413B2200192B01D82032D2B24B5D180009
:205460004138192801D82033DBB2D01A9A42EAD0E8E7F0B5002802D1106800280BD003004C
:2054800018000D00047801332E78002E04D1002C0BD120001460F0BD0135B442F4D1EFE77E
:2054A0002F000FE00134002E04D11C00013325781F000C002678B542F4D1002DF0D0002116
:2054C000013B19701760E6E7F0B505000E001700002487B000930CAB1B78019330003900BF
:2054E000FCF72CFF03000800C2B231001E0013003733DBB2092801D83032D3B202AA0134E4
:2055000003321355B942E9D226002B68009A1B6896420BD303AB013CE15C2B6828001B6846
:205520009847002807D1002CF4D105E0280001999847002802D00C2007B0F0BD0136E4E789
:20554000F0B50B000500140087B019785A1C0492002905D12B6828005B68984707B0F0BDEE
:20556000252904D02B6828001B6898473FE05A780392302A14D1023304930026049B197805
:205580005A1C0B00303BDBB20492092B03D92A2909D108CCDBB20A214E439E191300EEE703
:2055A00020230393E9E72E290BD11178531C0A00303A0493092A02D92A2902D104341A0086
:2055C000F3E7632935D015D8412957D003D82529C8D0049BB9E753292ED05829F9D1039B7F
:2055E00010220093330002CC2800FFF76DFF0028EFD0AFE773291FD014D8642901D0692977
:20560000E7D180CC002F07DA2B682D2128001B68984700289ED17F42039B0A22009339001D
:205620003300E1E77529D4D1039B0A2200933300D9E702CCC9B295E727683800FCF7CEFE91
:205640000590002F02D03978002902D1059BF61A10E02B6828001B68013798470028F0D02A
:2056600078E72B6828001B6803999847013E002800D06FE7002EF4DC0434AAE7002623680D
:20568000A768039363680593059B9E4201DB0C349FE7002E0DD1039B1022995D3023280093
:2056A00000932E3BFFF710FF002800D052E70136EAE7002FEFD02B6828001B68F9B29847FA
:2056C0000028E8D046E700000FB413B504AB10CB019372B6FDF72CF921000548019AFFF7D4
:2056E0002FFFFDF735F962B613BC08BC04B01847743100200FB407B504AA02CA0348019200
:20570000FFF71EFF03B008BC04B0184774310020F7B504000F001E000192384BE35C002BCA
:2057200060D08022E1684B68D8691042FCD00F251A68334802401A60A26853681868A8431F
:2057400018601068527B94460E226546AA404260019ADF605A604A6A20218A431A60012258
:2057600019680A431A60FEF717FA3E22E36805005B6830001A85FA2200239200002101F0B6
:2057800079FB00231F4A80185941FA2200239200FCF7DAFD0600A3685B685868002825D18A
:2057A0000F25A26853681968A9431960557B11680E22AA404A60144AA218DA6080225200B7
:2057C0005A60E268516A1960516880220D68D2012A430A6000210D4AA150012219680A43BD
:2057E0001A60FEBD0120FDF7DFFB96E7FEF7D4F9431B9BB29E42CED20220D1E71810000019
:20580000FFBFFFFFE7030000281000002410000008B4034B9C46034BC01A08BC6047C046F1
:20582000115700082C1100000EB403B5054B03AA02CAC0180192FFF783FE02B008BC03B06D
:205840001847C0462811000008B4034B9C46034BC01A08BC6047C046295800082C1100005F
:20586000F7B50C00902117001A0008AB1B78C905019388423ED18021304D89026E69314319
:20588000696103216500A9400368CE438B430221A94003600368194301600121A140002FB9
:2058A00048D147688F434760AA40C1683140C160C1680A43C2608268324082600122AA401F
:2058C00081680A438260A200072C02D92200083A92000721A14289410F249440019B494207
:2058E000934089004118086AA0430862086A03430B62F7BD1249884204D180210F4DC90299
:205900006E69BCE70F49884204D180210B4D09036E69B4E70C49884204D18021074D49036A
:205920006E69ACE709498842ABD18021034DC9036E69A4E7476839434160B5E7001002408C
:205940000004004800080048000C00480014004873B50400890332D501236A465371FDF7B0
:2059600059F8174D2E00AC363368002B27DDFDF751F82A0033689432013B33601368210A5B
:205980001800083010605970210C9970694609791C70197169464979240E597169468979E3
:2059A000DC7099716946C979D971064B2900984200D21168943504482960FDF707FA73BDF4
:2059C000D01E0020601F0020681F002010B57446FCF7F4FF72B6FCF7CDFF0A4B0A4AD9693C
:2059E0001A620A4B1868002802D003681B689847FCF7D2FF62B6FCF7F7FF2000FCF77EFF3A
:205A000010BDC046003801405F1B1200C415002010B57446FCF7D2FF72B6FCF7ABFF0A4B58
:205A20000A4AD9691A620A4B1868002802D003681B689847FCF7B0FF62B6FCF7D5FF200017
:205A4000FCF75CFF10BDC046004400405F1B1200C815002010B57446FCF7B0FF72B6FCF7DC
:205A600089FF0A4B0A4AD9691A620A4B1868002802D003681B689847FCF78EFF62B6FCF710
:205A8000B3FF2000FCF73AFF10BDC046004800405F1B1200CC1500200F4B10B5C158C2180E
:205AA0000E4B521AC358934200D91300812252018350002B0ED00024094BC45443685B6875
:205AC000D96082585A60C268126A1A60012219680A431A6010BDC046101000001C1000004F
:205AE0001810000010B50F24436859680A68A2430A60597B1A680E238B40536081230C4A5A
:205B00005B01C45883580B491B1B8350425812194418A24206D24250002B06D10122064BF0
:205B2000C25410BD02001032F5E7FFF7B5FFF8E71C100000101000001810000010B5FFF7AA
:205B4000D1FF10BD802230B50C4C0300055952010C20954210D20A4A9858451C9D5001702D
:205B6000084998585918884202D319001031995000201A5901321A5130BDC0461C10000041
:205B8000141000001010000010B5FFF7DBFF10BD08B4034B9C46034BC01A08BC6047C046DA
:205BA000895B000828110000034B10B5C35C002B01D0FFF771FF10BD1810000010B5FFF77C
:205BC000F3FF10BD08B4034B9C46034BC01A08BC6047C046BD5B000828110000826803003B
:205BE000526830B5506880220B4D52005C59121A121B01D50132FF320B20002A0BD0621C0C
:205C00005A51064A1C19A418227800200A705A59FF2A00DD585130BD2410000028100000A9
:205C2000F0B585B01F000E0001920400FDF7B4FF0021FA2202ABD9719200002305003800F9
:205C400001F018F900231F4A80185941FA2200239200FCF779FB070002ABD91D2000FFF78C
:205C6000BDFFFDF799FF401B80B2874228D302ABDB793E2BF0D1E16842334868C2691A426B
:205C8000FCD00F256268096A536814681868A8431860507B0E22824001986260DE6058609F
:205CA000022081431960012118680143196058680028FCD11968A9431960626005B0F0BD67
:205CC0000220FBE7E703000008B4034B9C46034BC01A08BC6047C046215C00082C1100008F
:205CE000C36810B512CB074B9C4202D0064B9C4204D10648FCF79CFAE06010BD044BD8685E
:205D0000F8E7C046003801400044004000127A00A4150020F7B5C668624B0400B068B1895F
:205D2000C5186B1E9D410023EDB21A0000952836FFF796FD3378032B02D15B48FFF784F905
:205D4000E7685A4B7E680320F218531E9A4112019040574B196B8143196339002831097894
:205D6000186B91400A0002431A63524A964200D072E080229969D2010A439A619B694E4B11
:205D80001C602000FFF7ACFF0023B8697360032805D18023494A9B0011680B431360230080
:205DA0000921474AFEF744FEE668426873686060190028319160316A3069116001224149A9
:205DC00062540C211960B43199609023DB05984259D03D4B984200D100250123B18A1A0022
:205DE0000095FFF73DFDF069042805D18023334ADB0011680B431360002309211A00FEF7F2
:205E000017FEE16842684B68A0601800243090602E48496A2018D0608020400050601160D9
:205E20000121106801431160A022596812050A435A6080221968D2010A431A601D4A934279
:205E400023D10F211B20FEF745FDE3685A68012311680B431360F7BD1D4A964207D18022D4
:205E6000D96992020A43DA61DB691A4B88E71A4A964200D085E78022D969D2020A43DA61F4
:205E8000DB69164B7CE71500A7E7114A934202D10F211C20D7E7104A9342D6D10F211D20E7
:205EA000D1E7C04600FCFFB7A415002000C8FEBF0010024000380140C4150020000001400F
:205EC0003D5B000818100000000400482810000000440040C815002000480040CC1500206C
:205EE0000022014B0CC0704700F80008F8B5436804000D001600013303D1002303600F4B4A
:205F0000436027000837002229003800FEF7E8FD3388834202D030801520F8BD29003800CE
:205F20006268FFF707F8002806D163685B19636023685B192360F0E70120EEE700F8000852
:205F400070B50D0001680400012000290FD000220948FEF7C5FD2B88834209D12000226853
:205F60000821A260E360054A0830FEF7E3FF70BD28801520FBE7C04600F8000800F000086B
:205F8000014B024ADA60704700ED00E00400FA050022024B1A60013A5A607047D01500200E
:205FA0007F213F4B70B5D9603E49FE24196103213D4D19625C633D499D639C640925DC6559
:205FC0003B4C0022012059621C660421FC24DD631D64384D1A605A609A605A619A61DA6110
:205FE0009962D96218635864DD641965596598655C66314D99675D67D9671D005918CA67B7
:020000040800F2
:206000003C210835E9671D002C4E88352E601D008C352A601D0090352A601D0094352A6070
:206020001D00983529601900254D9C310D601D006421A03529601D00A43529601900A831B7
:20604000086019009C661F4CAC310C6019001C671D4CB0310C601C005A21B43421601C009B
:20606000B83421601900BC3108601900FE30C031086019001548C43108601900C8310A6056
:206080001900CC310A601900D031DA660A601A000F49D43211600F4AD8331A6070BDC046C2
:2060A000D81D00200C7700081C77000815770008347700082377000841770008507700082D
:2060C000617700080F2700007277000881770008FFFF00008777000810B572B6FCF728FCB1
:2060E00010BD10B50400FCF795FC2368002B02D02000FDF755F810BD10B5FCF729FC62B6DB
:2061000010BD00009023DB05984206D18023134A9B0251690B4353617047114B984204D153
:2061200080230E4ADB025169F4E70E4B984204D180230A4A1B035169ECE70B4B984204D143
:206140008023064A5B035169E4E7084B9842E3D18023024ADB035169DCE7C04600100240E6
:206160000004004800080048000C00480014004810B5FFF761F943425841C0B210BDF8B5B4
:206180000468868885792000FFF7BCFF03237200D2B293402168B5409943216001210F00BB
:2061A0009740B1403A0020683843206060688843606061680D436560E1689943E160E1687A
:2061C000E160A1689943A160A3681A43A260F8BD70B50468867985882000FFF793FF03230E
:2061E0006D00EDB2AB40AE4022689A432260E2689A43E260E3681E43E66070BD03000268DC
:2062000010699A8801239340184043425841C0B2704700000369034A9B1802689B00D318F1
:2062200059637047FFFFFF3F002110B53430C161FFF7F0FF10BD000010B5036801491B6894
:20624000984710BD8F77000810B5036801491B68984710BD9477000810B5036801491B68CB
:20626000984710BD9F77000810B5036801491B68984710BDAA77000870B5050004003435EB
:206280002800FEF72DFD2800616DFEF7B3FF002128002165FFF7BEFF70BD03000268106985
:2062A0009A88012393401840431E9841C0B2704770B5124E3000FFF7F0FF002815D001243E
:2062C0000F48FFF701FA21000E4D9920AA882B6891409961FCF768FEAA882B6894409C62C1
:2062E0003000FFF7DAFF002800D170BD064B074A48201A60FCF758FEF2E7C046B41E0020DB
:20630000B4770008801F002000300040AAAA0000F8B5041D050020000F00FFF7E2FEFA22D3
:20632000380000239200002100F0A4FD0023084A084E80185941FA2200239200FCF704F801
:206340002B00010032002000FCF70EFFF8BDC046E70300002D4B000870B5046A036D6179BD
:2063600005008B420FD0A678627836021643E27834301204324326793606164307D1296500
:2063800089B2FFF747FF063400202C621EE08B421DD201332B65296D89B2FFF73BFF296D89
:2063A00063799942EFD0A278637812021A43E37820791B041343000689B218430431FBF7D5
:2063C00037FF411C2800FFF7A3FF012070BD8B42E1D9013BDEE770B504000D00FFF77CFEEE
:2063E00001235B42A36200236362236820001B68E56125629847FFF77FFE70BDC36910B584
:206400008B4201D0FFF7E7FF10BD0000421C13B5FF320C0000200949FFF72BF801230028FB
:2064200008D0002201A900F0A5FE019B1B78002B02D12060180016BD0D23FBE7AD72000854
:20644000F7B50700FC37040057497869FFF790FE002803D02000FFF7EFFE0CE053497869E6
:20646000FFF786FE002807D02068514B0568514A20005149A847F7BD50497869FFF778FE34
:20648000002803D004224E4B9A61E3E74D497869FFF76EFE002803D00422494B9A62D9E733
:2064A00049497869FFF764FE051E03D04748FFF717FDCFE746497869261DFFF759FE0028A4
:2064C0001DD0444F444B621D280044493B60FF32FEF7CFFF002808D02A0001A900F04AFEDE
:2064E000019B05001B78002B34D02000FFF7ACFEC1E73B49236820001B689847BBE739491C
:206500007869FFF735FE002822D0324B324A30001A6001A9FFF77AFF0028E6D16B462B4D93
:20652000991C019B28000B80FFF70AFD002805D0152834D12000FFF78FFE9CE72000FFF7DF
:206540007BFE2D20FCF730FD2800FFF719FD92E72549CFE78022431E12019342C5D23000D2
:2065600001A9FFF753FF0028BFD123682A005E6820001E491E4BB047002810D1164B29007C
:206580003B606B469A1C019B10481380FFF7AEFC0228AED01528CDD0002800D15AE72000F6
:2065A000FFF762FE67E7C046BB770008C0770008C8770008D6770008E0770008F07700084E
:2065C00000040048F6770008FD770008D01500200D78000800300040AAAA0000AD72000801
:2065E0001B7800082578000839780008D81500209411000070B5040001250430FFF771FD09
:206600006D42236A18780428FDD8FBF7FDFD030A35501B00236820009B6898470128F0D19D
:2066200070BD99785A7809021143DA7812040A4319790633090611432362E2D02000FFF7BB
:2066400067FEEDE7A26A01320AD19A78597812020A43D978090411431A7912060A43A262F5
:20666000A26A002A03D10633A5622362C9E7E369013A2362A262C4E799785A78090211439E
:20668000DA781B7912040A431B06134306225A43E3699B182362230031331B78002B04D0D8
:2066A00021000E482C31FEF743FE0121C6E7230031331B78002B04D0210008482C31FEF725
:2066C00037FE636A002B02D1E3612362A8E7E36123620023A562636293E7C046D01E00201C
:2066E000F0B587B0002202AB5A71FFF7F5FC0121C0484942FCF744FB0024A04224D1BE4A53
:2067000010009030036819005C781D7824022C439D785E792D042543DC78360224062C437D
:206720001D7908312E439D79DB792D0435431B062B430393814200D311009032AF48116010
:20674000FCF744FBFCF7FCFAFFF7D6FC02AB587901380C28C6D8FBF761FD2700C5FFC5FFCE
:20676000C5FFC5FFC5FF5900F100E50025013E014B011E01A24BA34A2F78E618A518A24AA6
:20678000737AA2180092002B16D000237372AB60FDF702FA009B9D4A9881AB68082F16D1E0
:2067A000002B01D0013BAB6004AD29002000FFF715FA0028DED095E7009B9B890193FDF7FE
:2067C000EBF9019BC01A80B26328DED8E0E70D2F01D00A2F13D1002BE6D00021E318995411
:2067E0008B4B8C49E218894BE018FEF742FE012328617372884BE018FFF722FED4E7FE2B9C
:20680000D2D8591CE318A9609F54CDE7834C2000FFF7F4FC002801D0FFF74AFD804E3000A5
:206820000830FFF73AFD7F4F3D78002810D0002D4FD1FFF751FC7C480430FFF752FCFFF7A6
:206840005BFC7A497A48FFF7C6FD01233B700AE030001030FFF721FD0028E8D1002D3BD04D
:20686000013D012D4AD90127390023681A69A38899400A4248D06F4E3578002D44D1FFF710
:206880002BFC69480430FFF72CFCFFF735FCA023377004951B010593FFF71EFC04A9564895
:2068A000FEF746FDFCF74CFAFFF726FC6248FFF7A5FC6249031E624808D12368A1881A6988
:2068C00001238B405F491A4200D05849FFF796FD08E7032DC7D1ACE72000FFF78FFC0028B8
:2068E000C1D0FFF7F9FBFCF795F84F484368002B01D1FEF761FDFFF7FFFBB4E752494C4851
:20690000FFF769FD0323A1E72000FFF777FC0028CCD0484B1A78002AC8D000221A700492F7
:20692000B023B7E73F4B1A78012A04D0032A00D0D8E6002200E002221A70D3E64348FEF727
:20694000C3FE2D20FCF730FBFFF7C6FB8022404B520059683F480A435A6080225968120110
:206960000A435A608022596892000A435A608022596892010A435A600422016911430161D1
:206980000221196019680A431A60C046C04630BFFFF7B2FBA6E63048FFF752FD2F48FBF7C3
:2069A00011FF9FE62E48FEF78FFE2E4C2000FEF761FB00280BD180212B4A2000136B8B43D9
:2069C0001363FEF74BFC2548FBF746FF8AE62748FEF77AFE86E62148FBF75AFF2148FEF797
:2069E0007FFC214A2249536B22480B405363EFE72148EDE7681F0020D01E0020741F0020A2
:206A00002F1200002C1200002E1200003011000030120000AD7200082C1100008C320020F2
:206A2000B41E0020E81F0020E4320020E4780008901F002008330020881F0020B47800087E
:206A4000F41F0020C6780008A8780008467800080070004000ED00E0D0060020CC0600206A
:206A600056780008A41500200010024063780008FFFFFEFF6F7800087F780008F0B585B06F
:206A800072B65E4B5E4A5F49591801CB08609342F9D1BF2201245C4B0327996A52040A4314
:206AA0009A629A6A59495A4D0A409A629A6A1969584A28000A431A611A6957490A401A6147
:206AC0001A69D968554A0A43DA60DA6854490A40DA60DA689A6922439A619B69514B524A88
:206AE0001F60102311680B431360FEF733FBFCF70FFCFCF785F94D4B12211A0090321360FE
:206B00001A004B4894321360FCF72AF900214948FCF726F94848FFF7FDF8484A4849494886
:206B2000FEF7D2FD2800FEF781FB474D2800FFF7A3FB46492800FFF74EFC454D2800FFF701
:206B40001EFBAA88434E94402B6830009C61FFF793FB092302AA53710022039B3E48F2620B
:206B60003363FFF70CFB3D4CA37925680193A38828005B00DBB20093FFF7C4FA3A00009967
:206B80002B688A4093432B60EB6808349343EB60019BEA688B401343EB60314BA342E3D118
:206BA000304C2000FFF714FB2F48FFF711FB2000FFF724FB00280ED0FFF77AFB274808306E
:206BC000FFF76BFB002812D030002849FFF703FC0122274B1A702748FBF706FEFFF77CFAC9
:206BE0002548FEF7E9FBFFF787FAFFF779FD1B481030FFF752FB0028E6D1ECE700200008AC
:206C0000C020000800E0FF1700100240FFFF81FEA41500203349EE7ACCB61185015A470050
:206C2000FEA5B8FF0000014000200240D01E0020741F0020681F00204C200020C87700081C
:206C4000D67700088A780008F41F0020D2780008EC1F0020901F0020801F0020B41E0020A5
:206C6000CC1E00208C320020881F0020E4780008E81F0020CC060020C0320020594BF7B586
:206C80001A00903213601A00002000219432186059601360E123544A5B021360534B0327A6
:206CA00053600923D36001335361063BD3618E33136285235B015362130090210024022666
:206CC00028331F704A4BC9050130916011619061DA604849484A5C605A5048499C605A50E8
:206CE000474A48499854484A48489C5004329C50474A9C50474A9C50474A9C50474A9C5062
:206D0000474A9C50474A484D1A60484A5A50484A48495A50484B21009E8018609C712422B0
:206D2000281D00F033FA2B000122902131331C70424B364801932B60414B52426F64FC37B2
:206D4000EF64AA62EC626B63A863EC632B64AC643C4B2C656A653C4DC905063219609A80B6
:206D600021009C71281D1F3200F010FA290031310C700199324B296004216B632B64012308
:206D8000E963902101226B64304BC905196099600D215242AA626A652D4A9E719C809E81EB
:206DA0009E739E751A6199822A4B2B491748596048211860294BEF641A60294AEC625A607B
:206DC000284B294AA863AC642C651A60D9610821FF311984254B1A60254ADA6108221A841B
:206DE000F7BDC046D01E002094320020003801404C200020101000005C2000201410000000
:206E000018100000281100001C100000000400482410000030120000341200003812000093
:206E20003C120000D0760008901F0020F0760008007700082C110000EC1F00209C78000876
:206E400000040040801F0020F41F0020B41E0020000800488C32002005000200881F00200E
:206E60000E000100C0320020C4760008E4320020E7030000F0B5CE469946030C9C461304EF
:206E800047461B0C1D000E0061460404240C80B50700100C4B436543414360432C0CC0186F
:206EA00020188C46834203D980235B029846C444494679435643030C2D042D0C891963449B
:206EC00000044019C918C0BCB946B046F0BDC046F0B557464E464546DE46E0B504000D0025
:206EE0009246994683B08B4230D82DD049465046FBF74AFA290006002000FBF745FA331AAE
:206F00009846203B34D49B4653465A46934042461F00534693401E00AF423BD8AF4200D14C
:206F200079E05B46A41BBD41002B00DA76E0002200230092019301235A4693400193012385
:206F400042469340009329E08242CFD900220023009201930C9B002B01D01C605D600098EF
:206F6000019903B0F0BCBB46B246A946A046F0BD42469B4620239B1A5246DA4041461300F0
:206F80004A468A40170042461F43534693401E00AF42C3D900220023009201934346002B60
:206FA000D8D0FB0772081A4346467B080EE0AB4201D1A2420CD8A41A9D41012024196D4124
:206FC0000021013E24184D41002E06D0AB42EED9013E24196D41002EF8D1009801995B46DB
:206FE00000196941002B24DB2B005A464446D3402A00E2401C005B461500002B2ADB2600C8
:207000009E40330026004746BE403200801A9941009001919EE7A342BCD882E742462023B4
:2070200000219B1A0022009101920122DA40019285E7424620239B1A2A0046469A402300C5
:20704000F340444613432A00E2401C005B461500002BD4DA42462F002023260097409B1A7A
:20706000DE403B003343CDE7F0B587B01E00059001910292012B48D00B00242E45D83B4A95
:20708000082194461A00604614780133005D1D0007000F400842F5D12D2C3DD101271C786A
:2070A000951C002E5ED0102E09D1302C07D120222B789343582B50D110266C7802352C4B50
:2070C0003100FB1818000393FBF738F90022049101218446100049422300303B092B03D9BF
:2070E000113B192B1DD80A339E421EDD541C09D00A00844506D302D1049C9C4202DB0122AD
:20710000704318182C780135E6E700F047F816230360002007B0F0BD2B2CC2D11C78951C67
:20712000BFE72300613B192BDDD9531C09D12223059A03981360029B002BEBD06B1E019315
:2071400007E0002F00D04042029B002BE2D0002AF4D1029B019A1A60DCE73024002EAED1E8
:207160000836ACE7302CA2D00A26A8E7F1780008FFFFFF7F10B5044C13000A000100206809
:20718000FFF772FF10BDC0461C05002003008218934200D1704719700133F9E7014B186811
:2071A0007047C0461C050020002310B59A4200D110BDCC5CC4540133F8E70000F8B5C04669
:2071C000F8B5C04600000000000000000102030406070809000000000102030406030900B8
:2071E000040012034F0073007400720061006E006E006100180356006900720074007500FB
:2072000061006C00200043004F004D000803010002000300430000001C720008090243006A
:207220000201008032090400000102020100052400100105240100010424020205240600C6
:2072400001070582030800FF09040100020A0000000705010240000007058102400000005D
:2072600012000000687200081201100102000040830440570002010203010000020000008B
:20728000DC71000802000000E271000802000000F4710008020000000C72000855736252C9
:2072A00073740D00557362416464720D00202C003126000835240008493A0008A1260008C2
:2072C000600A0020010102000200000000000000D33A0008433B000840004000E4070020F8
:2072E00030090020020000000000000003000000000000008F3B000800000000100000004E
:20730000F40700200000000001000000000000000000000000000000652400086124000833
:207320008525000881240008FD240008FCFFFFFF000000009B250008ED2400087525000849
:20734000535623340053562335005356233600535623370053562338005356233900535675
:2073600023313000535623313100636845767442726F616463617374466C61677349006335
:20738000684576745369676E616C49006D61696E0069646C6500737461636B206F7665727A
:2073A000666C6F7700636853636852656164794900636853656D5369676E616C490063688C
:2073C00053656D5761697454696D656F75745300636853656D4F626A656374496E697400DE
:2073E00063300000E0730008C8020020C8040020A0090020580A00206368546864536C656F
:207400006570530063685468644372656174655374617469630063685468644372656174C3
:207420006553757370656E646564490063685654446F52657365744900636854696D6541E4
:207440006464580063685654446F536574490000547A0008443400204434002044340020D1
:20746000547A0008000000000000000000000000547A000800000000000000000000000060
:20748000547A0008000000000000000000000000547A000800000000000000000000000040
:2074A000547A0008000000000000000000000000547A000800000000000000000000000020
:2074C000547A00080000000000000000000000006F6271577269746554696D656F757400A2
:2074E0006F6271506F737446756C6C42756666657253006F62714F626A656374496E697437
:20750000006962715265616454696D656F757400696271506F737446756C6C42756666656F
:207520007249006962714F626A656374496E6974007364755374617274005F63746C00006D
:2075400000000000C9380008B1380008F9380008E1380008EF380008D7380008BF38000892
:20756000A73800080939000875736253746172745472616E736D6974490075736253746175
:20758000727452656365697665490075736244697361626C65456E64706F696E74734900FE
:2075A000757362496E6974456E64706F696E74490075736253746F7000757362537461728F
:2075C000740000000100000000000000E93E0008C54100087542000840004000E80A0020A8
:2075E000E80A002001000000F80A0020646D6153747265616D416C6C6F6349000000024042
:20760000080002400100000000000009000002401C000240060000000004010A000002401F
:2076200030000240060000000008020A000002404400024078000000000C030B0000024022
:2076400058000240780000000010040B000002406C000240780000000014050B000002402B
:2076600080000240780000000018060B0D486172644661756C740D00466C6173682065722D
:20768000617365206572726F720D00466C617368207772697465206572726F720D00414841
:2076A00042467265713D25754D487A3B20415042467265713D25754D487A0D000000000065
:2076C0000000000001540008000000000000000051590008895B0008BD5B00082958000806
:2076E00011570008215C0008D8EEFFFF00000000915B0008C55B0008D4EEFFFF00000000F5
:207700004958000811580008C95C0008506C617965724944005465616D49440048697443AC
:207720006E7400526F756E6473496E4D6167617A696E65004D6167617A696E6573436E7445
:207740000053686F7473506572696F645F6D73004D6167617A52656C6F616444656C617940
:20776000004D696E44656C617942657477486974730050756C73654C656E4869745F6D7340
:2077800000545850777200506B7454797065004F6B0D0A00426164506172616D0D0A004310
:2077A00052434572726F720D0A004661696C7572650D0A0041766164610D0050696E6700BC
:2077C00056657273696F6E0032303234303231375F32323137004D6167696357616E64009B
:2077E00056657273696F6E3A2025532025530D005077724F6E005077724F666600557064B9
:2078000061746546775265737461727400557064617465467757726974650054696D656F63
:2078200075740D0A005570646174654677436865636B416E6452756E00436D64556E6B6E52
:207840006F776E0D0A00456E746572696E6720736C6565700D0055534220636F6E6E6563BB
:20786000740D004853493438206661696C0D0055534220646973636F6E6E6563740D0055D8
:2078800053422072656164790D000D25532025530D0A00000000000000000000F56500087B
:2078A000296200085963000800CF0000000003000000000000CF000000FF00CF0000002DD5
:2078C00002000000000000CF0000000403000000000000CF000000FF00CF0000000403002C
:2078E0000000000000CF000000FF03000000000000202020202020202020282828282820AF
:207900002020202020202020202020202020202020881010101010101010101010101010DF
:20792000100404040404040404040410101010101010414141414141010101010101010111
:2079400001010101010101010101010110101010101042424242424202020202020202021F
:2079600002020202020202020202020210101010200000000000000000000000000000008F
:207980000000000000000000000000000000000000000000000000000000000000000000E7
:2079A0000000000000000000000000000000000000000000000000000000000000000000C7
:2079C0000000000000000000000000000000000000000000000000000000000000000000A7
:2079E0000000000000000000000000000000000000000000DCF4FF7F0100000000960000A2
:207A000000000800000000000C33002074330020DC33002000000000000000000000000009
:207A2000000000000000000000000000000000000000000000000000000000000000000046
:207A400000000000000000000000000000000000D0040020FFFFFFFFFFFFFFFFFFFFFFFF3E
:207A6000FFFFFFFFFFFFFFFFFFFFFFFFFFFFFFFFFFFFFFFFFFFFFFFFFFFFFFFFFFFFFFFF26
:207A8000FFFFFFFFFFFFFFFFFFFFFFFFFFFFFFFFFFFFFFFFFFFFFFFFFFFFFFFFFFFFFFFF06
:207AA000FFFFFFFFFFFFFFFFFFFFFFFFFFFFFFFFFFFFFFFFFFFFFFFFFFFFFFFFFFFFFFFFE6
:207AC000FFFFFFFFFFFFFFFFFFFFFFFFFFFFFFFFFFFFFFFFFFFFFFFFFFFFFFFFFFFFFFFFC6
:020000040800F2
:20F80000C802002001220008D9280008314E0008032200080322000803220008032200088F
:20F82000032200080322000803220008032200080322000803220008032200080322000860
:20F840000322000803220008032200080322000803220008A94F0008DD4F0008115000082A
:20F8600003220008914A0008A5370008CD37000803220008032200080322000803220008D4
:20F88000032200080322000803220008593C00080322000803220008032200080322000890
:20F8A000032200080322000803220008CD590008115A0008555A00080322000829430008C8
:20F8C00015240008B1280008B14A00082D540008915F0008A15F00087D6C0008ED23000871
:20F8E000F0B544464D4656465F46F0B46B46CB60C3689D46F0BCA046A946B246BB46F0BD50
:20F9000000F026FC62B6281CA047002000F044FFFEE700F00DFC00F0F3FD00F019FC024A30
:20F92000024B1360FEE7C04604ED00E00000008072B6244880F30888234880F309880220A3
:20F9400080F31488BFF36F8F01F0BCF803F0DEF81E481F491B4A914202DA08600431FAE71A
:20F960001C49194A914202DA08600431FAE71A491A4A1B4B9A4204DA086810600431043260
:20F98000F8E700201749184A914202DA08600431FAE701F09BF801F096F8144C144DAC42C7
